:020000020000FC
:1000000008E00EBF0FE50DBFB8980FEF04BB01E08D
:1000100005BB11E0B09B04C001E00E942800FACFAC
:10002000B19B04C002E00E942800F4CFB29B04C040
:1000300003E00E942800EECFB39B04C004E00E94BE
:100040002800E8CFB49BE6CF05E00E942800E2CF6D
:10005000011718F4412F0E943B0019F4102F15BB13
:100060000895402F411B13950E944B0015BB4A95E4
:10007000D1F7102F0895542F60E04A9501C0E9F799
:10008000461700F419F455BB102F08955A950E9495
:100090004B0055BBF2CFE0E2D2E3C6E9000000001E
:0E00A000CA95E1F7DA95C9F7EA95B1F7089528
:00000001FF
